{
  "_format": "hh-sol-artifact-1",
  "contractName": "DonationApp",
  "sourceName": "contracts/DonationApp.sol",
  "abi": [
    {
      "inputs": [],
      "stateMutability": "nonpayable",
      "type": "constructor"
    },
    {
      "anonymous": false,
      "inputs": [
        {
          "indexed": true,
          "internalType": "address",
          "name": "donor",
          "type": "address"
        },
        {
          "indexed": false,
          "internalType": "uint256",
          "name": "amount",
          "type": "uint256"
        },
        {
          "indexed": false,
          "internalType": "uint256",
          "name": "totalDonated",
          "type": "uint256"
        },
        {
          "indexed": false,
          "internalType": "uint256",
          "name": "timestamp",
          "type": "uint256"
        }
      ],
      "name": "DonationReceived",
      "type": "event"
    },
    {
      "inputs": [],
      "name": "getContractBalance",
      "outputs": [
        {
          "internalType": "uint256",
          "name": "",
          "type": "uint256"
        }
      ],
      "stateMutability": "view",
      "type": "function"
    },
    {
      "inputs": [],
      "name": "owner",
      "outputs": [
        {
          "internalType": "address",
          "name": "",
          "type": "address"
        }
      ],
      "stateMutability": "view",
      "type": "function"
    },
    {
      "inputs": [],
      "name": "withdraw",
      "outputs": [],
      "stateMutability": "nonpayable",
      "type": "function"
    },
    {
      "stateMutability": "payable",
      "type": "receive"
    }
  ],
  "bytecode": "0x60a0604052348015600f57600080fd5b503373ffffffffffffffffffffffffffffffffffffffff1660808173ffffffffffffffffffffffffffffffffffffffff168152505060805161066d61006d6000396000818161014d0152818161022501526102fb015261066d6000f3fe6080604052600436106100385760003560e01c80633ccfd60b146100de5780636f9fb98a146100f55780638da5cb5b14610120576100d9565b366100d95760003411610080576040517f08c379a0000000000000000000000000000000000000000000000000000000008152600401610077906103a0565b60405180910390fd5b60004790503373ffffffffffffffffffffffffffffffffffffffff167f3168ca6b1e292883c0668008556fb887f7cce92bcd3c1c57c15a34dcdccd58923483426040516100cf939291906103d9565b60405180910390a2005b600080fd5b3480156100ea57600080fd5b506100f361014b565b005b34801561010157600080fd5b5061010a6102f1565b6040516101179190610410565b60405180910390f35b34801561012c57600080fd5b506101356102f9565b604051610142919061046c565b60405180910390f35b7f000000000000000000000000000000000000000000000000000000000000000073ffffffffffffffffffffffffffffffffffffffff163373ffffffffffffffffffffffffffffffffffffffff16146101d9576040517f08c379a00000000000000000000000000000000000000000000000000000000081526004016101d0906104f9565b60405180910390fd5b600047905060008111610221576040517f08c379a000000000000000000000000000000000000000000000000000000000815260040161021890610565565b60405180910390fd5b60007f000000000000000000000000000000000000000000000000000000000000000073ffffffffffffffffffffffffffffffffffffffff1682604051610267906105b6565b60006040518083038185875af1925050503d80600081146102a4576040519150601f19603f3d011682016040523d82523d6000602084013e6102a9565b606091505b50509050806102ed576040517f08c379a00000000000000000000000000000000000000000000000000000000081526004016102e490610617565b60405180910390fd5b5050565b600047905090565b7f000000000000000000000000000000000000000000000000000000000000000081565b600082825260208201905092915050565b7f446f6e6174696f6e206d7573742062652067726561746572207468616e207a6560008201527f726f2e0000000000000000000000000000000000000000000000000000000000602082015250565b600061038a60238361031d565b91506103958261032e565b604082019050919050565b600060208201905081810360008301526103b98161037d565b9050919050565b6000819050919050565b6103d3816103c0565b82525050565b60006060820190506103ee60008301866103ca565b6103fb60208301856103ca565b61040860408301846103ca565b949350505050565b600060208201905061042560008301846103ca565b92915050565b600073ffffffffffffffffffffffffffffffffffffffff82169050919050565b60006104568261042b565b9050919050565b6104668161044b565b82525050565b6000602082019050610481600083018461045d565b92915050565b7f4f6e6c7920746865206f776e65722063616e2077697468647261772066756e6460008201527f732e000000000000000000000000000000000000000000000000000000000000602082015250565b60006104e360228361031d565b91506104ee82610487565b604082019050919050565b60006020820190508181036000830152610512816104d6565b9050919050565b7f546865726520617265206e6f2066756e647320746f2077697468647261772e00600082015250565b600061054f601f8361031d565b915061055a82610519565b602082019050919050565b6000602082019050818103600083015261057e81610542565b9050919050565b600081905092915050565b50565b60006105a0600083610585565b91506105ab82610590565b600082019050919050565b60006105c182610593565b9150819050919050565b7f46756e64207472616e73666572206661696c65642e0000000000000000000000600082015250565b600061060160158361031d565b915061060c826105cb565b602082019050919050565b60006020820190508181036000830152610630816105f4565b905091905056fea26469706673582212208bbcf61af33fe6b567c39de057756666fde525805501b92cd00f5dcc1a616bd064736f6c634300081c0033",
  "linkReferences": {},
  "deployedLinkReferences": {}
}